{
  "contractName": "Rewarder",
  "abi": [
    {
      "inputs": [
        {
          "internalType": "address",
          "name": "_token",
          "type": "address"
        }
      ],
      "stateMutability": "nonpayable",
      "type": "constructor"
    },
    {
      "inputs": [],
      "name": "addHolder",
      "outputs": [],
      "stateMutability": "payable",
      "type": "function"
    },
    {
      "inputs": [],
      "name": "rewardHolders",
      "outputs": [],
      "stateMutability": "nonpayable",
      "type": "function"
    }
  ],
  "bytecode": "0x6080604052601460025534801561001557600080fd5b50604051610569380380610569833981810160405281019061003791906100e0565b806000806101000a81548173ffffffffffffffffffffffffffffffffffffffff021916908373ffffffffffffffffffffffffffffffffffffffff1602179055505061010d565b600080fd5b600073ffffffffffffffffffffffffffffffffffffffff82169050919050565b60006100ad82610082565b9050919050565b6100bd816100a2565b81146100c857600080fd5b50565b6000815190506100da816100b4565b92915050565b6000602082840312156100f6576100f561007d565b5b6000610104848285016100cb565b91505092915050565b61044d8061011c6000396000f3fe6080604052600436106100295760003560e01c8063355624dc1461002e578063ab0cd86a14610038575b600080fd5b61003661004f565b005b34801561004457600080fd5b5061004d61016f565b005b6000341161005c57600080fd5b6001339080600181540180825580915050600190039060005260206000200160009091909190916101000a81548173ffffffffffffffffffffffffffffffffffffffff021916908373ffffffffffffffffffffffffffffffffffffffff16021790555060008054906101000a900473ffffffffffffffffffffffffffffffffffffffff1673ffffffffffffffffffffffffffffffffffffffff1663a9059cbb33346040518363ffffffff1660e01b815260040161011a9291906102dd565b602060405180830381600087803b15801561013457600080fd5b505af1158015610148573d6000803e3d6000fd5b505050506040513d601f19601f8201168201806040525081019061016c9190610343565b50565b60005b6001805490508110156102805760008054906101000a900473ffffffffffffffffffffffffffffffffffffffff1673ffffffffffffffffffffffffffffffffffffffff1663a9059cbb600183815481106101cf576101ce610370565b5b9060005260206000200160009054906101000a900473ffffffffffffffffffffffffffffffffffffffff166002546040518363ffffffff1660e01b815260040161021a9291906102dd565b602060405180830381600087803b15801561023457600080fd5b505af1158015610248573d6000803e3d6000fd5b505050506040513d601f19601f8201168201806040525081019061026c9190610343565b508080610278906103ce565b915050610172565b50565b600073ffffffffffffffffffffffffffffffffffffffff82169050919050565b60006102ae82610283565b9050919050565b6102be816102a3565b82525050565b6000819050919050565b6102d7816102c4565b82525050565b60006040820190506102f260008301856102b5565b6102ff60208301846102ce565b9392505050565b600080fd5b60008115159050919050565b6103208161030b565b811461032b57600080fd5b50565b60008151905061033d81610317565b92915050565b60006020828403121561035957610358610306565b5b60006103678482850161032e565b91505092915050565b7f4e487b7100000000000000000000000000000000000000000000000000000000600052603260045260246000fd5b7f4e487b7100000000000000000000000000000000000000000000000000000000600052601160045260246000fd5b60006103d9826102c4565b91507fffffffffffffffffffffffffffffffffffffffffffffffffffffffffffffffff82141561040c5761040b61039f565b5b60018201905091905056fea2646970667358221220af5457f661e0ee0193ac137fda93b7e75ea6ea306c70cc655aadcca162a4ae1e64736f6c63430008090033",
  "immutableReferences": {},
  "source": "//SPDX-License-Identifier: MIT\npragma solidity ^0.8.9;\n\nimport \"@openzeppelin/contracts/token/ERC20/ERC20.sol\";\nimport \"@openzeppelin/contracts/token/ERC20/extensions/ERC20Burnable.sol\";\nimport \"@openzeppelin/contracts/access/Ownable.sol\";\n\ncontract Token is ERC20, ERC20Burnable, Ownable {\n\n\n    constructor() ERC20(\"OverTheTop\", \"OTT\") {\n        _mint(msg.sender, 1000000 * 10 ** decimals());\n\n    }\n\n\n\n    function mint(address to, uint256 amount) public onlyOwner {\n        Rewarder rewarder = Rewarder(to);\n        rewarder.addHolder();\n        _mint(to, amount);\n    }\n\n}\n\n\ncontract Rewarder {\n\n    address token;\n\n    address[] holders;\n\n    uint256 rewardAmount = 20;\n\n    constructor(address _token) {\n        token = _token;\n    }\n\n    function addHolder() public payable {\n        require(msg.value > 0);\n        holders.push(msg.sender);\n        IERC20(token).transfer(msg.sender, msg.value);\n    }\n\n    function rewardHolders() public {\n        for (uint256 i = 0; i < holders.length; i++) {\n            IERC20(token).transfer(holders[i], rewardAmount);\n        }\n    }\n}",
  "sourcePath": "/Users/ozgur/code/solidity/simplecontract/contracts/Token.sol",
  "compiler": {
    "name": "solc",
    "version": "0.8.9+commit.e5eed63a.Emscripten.clang"
  },
  "schemaVersion": "3.4.3",
  "updatedAt": "2022-04-03T22:15:54.727Z",
  "devdoc": {
    "kind": "dev",
    "methods": {},
    "version": 1
  },
  "userdoc": {
    "kind": "user",
    "methods": {},
    "version": 1
  }
}